:100000000C9434000C9446000C9446000C9446006A
:100010000C9446000C9446000C9446000C94460048
:100020000C9446000C9446000C9446000C94460038
:100030000C9446000C9446000C9446000C94460028
:100040000C9446000C9446000C9461000C944600FD
:100050000C9446000C9446000C9446000C94460008
:100060000C9446000C94460011241FBECFEFD8E03C
:10007000DEBFCDBF11E0A0E0B1E001C01D92A13014
:10008000B107E1F70E9448000C9479000C9400003D
:1000900082E08AB984B915B81092C50087E68093CA
:1000A000C4008091C0008D7F8093C00088E1809360
:1000B000C10080E88093C10086E08093C2007894FC
:1000C000FFCF1F920F920FB60F9211248F93EF93D1
:1000D000FF9382E085B9E6ECF0E080818093000137
:1000E0008083FF91EF918F910F900FBE0F901F9023
:0600F0001895F894FFCF03
:00000001FF
